{
    "_format": "hh-sol-artifact-1",
    "contractName": "CryptoDevs",
    "sourceName": "contracts/CryptoDevs.sol",
    "abi": [
        {
            "inputs": [
                {
                    "internalType": "address",
                    "name": "whitelistContract",
                    "type": "address"
                }
            ],
            "stateMutability": "nonpayable",
            "type": "constructor"
        },
        {
            "inputs": [],
            "name": "ERC721EnumerableForbiddenBatchMint",
            "type": "error"
        },
        {
            "inputs": [
                {
                    "internalType": "address",
                    "name": "sender",
                    "type": "address"
                },
                {
                    "internalType": "uint256",
                    "name": "tokenId",
                    "type": "uint256"
                },
                {
                    "internalType": "address",
                    "name": "owner",
                    "type": "address"
                }
            ],
            "name": "ERC721IncorrectOwner",
            "type": "error"
        },
        {
            "inputs": [
                {
                    "internalType": "address",
                    "name": "operator",
                    "type": "address"
                },
                {
                    "internalType": "uint256",
                    "name": "tokenId",
                    "type": "uint256"
                }
            ],
            "name": "ERC721InsufficientApproval",
            "type": "error"
        },
        {
            "inputs": [
                {
                    "internalType": "address",
                    "name": "approver",
                    "type": "address"
                }
            ],
            "name": "ERC721InvalidApprover",
            "type": "error"
        },
        {
            "inputs": [
                {
                    "internalType": "address",
                    "name": "operator",
                    "type": "address"
                }
            ],
            "name": "ERC721InvalidOperator",
            "type": "error"
        },
        {
            "inputs": [
                {
                    "internalType": "address",
                    "name": "owner",
                    "type": "address"
                }
            ],
            "name": "ERC721InvalidOwner",
            "type": "error"
        },
        {
            "inputs": [
                {
                    "internalType": "address",
                    "name": "receiver",
                    "type": "address"
                }
            ],
            "name": "ERC721InvalidReceiver",
            "type": "error"
        },
        {
            "inputs": [
                {
                    "internalType": "address",
                    "name": "sender",
                    "type": "address"
                }
            ],
            "name": "ERC721InvalidSender",
            "type": "error"
        },
        {
            "inputs": [
                {
                    "internalType": "uint256",
                    "name": "tokenId",
                    "type": "uint256"
                }
            ],
            "name": "ERC721NonexistentToken",
            "type": "error"
        },
        {
            "inputs": [
                {
                    "internalType": "address",
                    "name": "owner",
                    "type": "address"
                },
                {
                    "internalType": "uint256",
                    "name": "index",
                    "type": "uint256"
                }
            ],
            "name": "ERC721OutOfBoundsIndex",
            "type": "error"
        },
        {
            "inputs": [
                {
                    "internalType": "address",
                    "name": "owner",
                    "type": "address"
                }
            ],
            "name": "OwnableInvalidOwner",
            "type": "error"
        },
        {
            "inputs": [
                {
                    "internalType": "address",
                    "name": "account",
                    "type": "address"
                }
            ],
            "name": "OwnableUnauthorizedAccount",
            "type": "error"
        },
        {
            "anonymous": false,
            "inputs": [
                {
                    "indexed": true,
                    "internalType": "address",
                    "name": "owner",
                    "type": "address"
                },
                {
                    "indexed": true,
                    "internalType": "address",
                    "name": "approved",
                    "type": "address"
                },
                {
                    "indexed": true,
                    "internalType": "uint256",
                    "name": "tokenId",
                    "type": "uint256"
                }
            ],
            "name": "Approval",
            "type": "event"
        },
        {
            "anonymous": false,
            "inputs": [
                {
                    "indexed": true,
                    "internalType": "address",
                    "name": "owner",
                    "type": "address"
                },
                {
                    "indexed": true,
                    "internalType": "address",
                    "name": "operator",
                    "type": "address"
                },
                {
                    "indexed": false,
                    "internalType": "bool",
                    "name": "approved",
                    "type": "bool"
                }
            ],
            "name": "ApprovalForAll",
            "type": "event"
        },
        {
            "anonymous": false,
            "inputs": [
                {
                    "indexed": true,
                    "internalType": "address",
                    "name": "previousOwner",
                    "type": "address"
                },
                {
                    "indexed": true,
                    "internalType": "address",
                    "name": "newOwner",
                    "type": "address"
                }
            ],
            "name": "OwnershipTransferred",
            "type": "event"
        },
        {
            "anonymous": false,
            "inputs": [
                {
                    "indexed": true,
                    "internalType": "address",
                    "name": "from",
                    "type": "address"
                },
                {
                    "indexed": true,
                    "internalType": "address",
                    "name": "to",
                    "type": "address"
                },
                {
                    "indexed": true,
                    "internalType": "uint256",
                    "name": "tokenId",
                    "type": "uint256"
                }
            ],
            "name": "Transfer",
            "type": "event"
        },
        {
            "inputs": [],
            "name": "_price",
            "outputs": [
                {
                    "internalType": "uint256",
                    "name": "",
                    "type": "uint256"
                }
            ],
            "stateMutability": "view",
            "type": "function"
        },
        {
            "inputs": [
                {
                    "internalType": "address",
                    "name": "to",
                    "type": "address"
                },
                {
                    "internalType": "uint256",
                    "name": "tokenId",
                    "type": "uint256"
                }
            ],
            "name": "approve",
            "outputs": [],
            "stateMutability": "nonpayable",
            "type": "function"
        },
        {
            "inputs": [
                {
                    "internalType": "address",
                    "name": "owner",
                    "type": "address"
                }
            ],
            "name": "balanceOf",
            "outputs": [
                {
                    "internalType": "uint256",
                    "name": "",
                    "type": "uint256"
                }
            ],
            "stateMutability": "view",
            "type": "function"
        },
        {
            "inputs": [
                {
                    "internalType": "uint256",
                    "name": "tokenId",
                    "type": "uint256"
                }
            ],
            "name": "getApproved",
            "outputs": [
                {
                    "internalType": "address",
                    "name": "",
                    "type": "address"
                }
            ],
            "stateMutability": "view",
            "type": "function"
        },
        {
            "inputs": [
                {
                    "internalType": "address",
                    "name": "owner",
                    "type": "address"
                },
                {
                    "internalType": "address",
                    "name": "operator",
                    "type": "address"
                }
            ],
            "name": "isApprovedForAll",
            "outputs": [
                {
                    "internalType": "bool",
                    "name": "",
                    "type": "bool"
                }
            ],
            "stateMutability": "view",
            "type": "function"
        },
        {
            "inputs": [],
            "name": "maxTokenIds",
            "outputs": [
                {
                    "internalType": "uint256",
                    "name": "",
                    "type": "uint256"
                }
            ],
            "stateMutability": "view",
            "type": "function"
        },
        {
            "inputs": [],
            "name": "mint",
            "outputs": [],
            "stateMutability": "payable",
            "type": "function"
        },
        {
            "inputs": [],
            "name": "name",
            "outputs": [
                {
                    "internalType": "string",
                    "name": "",
                    "type": "string"
                }
            ],
            "stateMutability": "view",
            "type": "function"
        },
        {
            "inputs": [],
            "name": "owner",
            "outputs": [
                {
                    "internalType": "address",
                    "name": "",
                    "type": "address"
                }
            ],
            "stateMutability": "view",
            "type": "function"
        },
        {
            "inputs": [
                {
                    "internalType": "uint256",
                    "name": "tokenId",
                    "type": "uint256"
                }
            ],
            "name": "ownerOf",
            "outputs": [
                {
                    "internalType": "address",
                    "name": "",
                    "type": "address"
                }
            ],
            "stateMutability": "view",
            "type": "function"
        },
        {
            "inputs": [],
            "name": "renounceOwnership",
            "outputs": [],
            "stateMutability": "nonpayable",
            "type": "function"
        },
        {
            "inputs": [],
            "name": "reservedTokens",
            "outputs": [
                {
                    "internalType": "uint256",
                    "name": "",
                    "type": "uint256"
                }
            ],
            "stateMutability": "view",
            "type": "function"
        },
        {
            "inputs": [],
            "name": "reservedTokensClaimed",
            "outputs": [
                {
                    "internalType": "uint256",
                    "name": "",
                    "type": "uint256"
                }
            ],
            "stateMutability": "view",
            "type": "function"
        },
        {
            "inputs": [
                {
                    "internalType": "address",
                    "name": "from",
                    "type": "address"
                },
                {
                    "internalType": "address",
                    "name": "to",
                    "type": "address"
                },
                {
                    "internalType": "uint256",
                    "name": "tokenId",
                    "type": "uint256"
                }
            ],
            "name": "safeTransferFrom",
            "outputs": [],
            "stateMutability": "nonpayable",
            "type": "function"
        },
        {
            "inputs": [
                {
                    "internalType": "address",
                    "name": "from",
                    "type": "address"
                },
                {
                    "internalType": "address",
                    "name": "to",
                    "type": "address"
                },
                {
                    "internalType": "uint256",
                    "name": "tokenId",
                    "type": "uint256"
                },
                {
                    "internalType": "bytes",
                    "name": "data",
                    "type": "bytes"
                }
            ],
            "name": "safeTransferFrom",
            "outputs": [],
            "stateMutability": "nonpayable",
            "type": "function"
        },
        {
            "inputs": [
                {
                    "internalType": "address",
                    "name": "operator",
                    "type": "address"
                },
                {
                    "internalType": "bool",
                    "name": "approved",
                    "type": "bool"
                }
            ],
            "name": "setApprovalForAll",
            "outputs": [],
            "stateMutability": "nonpayable",
            "type": "function"
        },
        {
            "inputs": [
                {
                    "internalType": "bytes4",
                    "name": "interfaceId",
                    "type": "bytes4"
                }
            ],
            "name": "supportsInterface",
            "outputs": [
                {
                    "internalType": "bool",
                    "name": "",
                    "type": "bool"
                }
            ],
            "stateMutability": "view",
            "type": "function"
        },
        {
            "inputs": [],
            "name": "symbol",
            "outputs": [
                {
                    "internalType": "string",
                    "name": "",
                    "type": "string"
                }
            ],
            "stateMutability": "view",
            "type": "function"
        },
        {
            "inputs": [
                {
                    "internalType": "uint256",
                    "name": "index",
                    "type": "uint256"
                }
            ],
            "name": "tokenByIndex",
            "outputs": [
                {
                    "internalType": "uint256",
                    "name": "",
                    "type": "uint256"
                }
            ],
            "stateMutability": "view",
            "type": "function"
        },
        {
            "inputs": [
                {
                    "internalType": "address",
                    "name": "owner",
                    "type": "address"
                },
                {
                    "internalType": "uint256",
                    "name": "index",
                    "type": "uint256"
                }
            ],
            "name": "tokenOfOwnerByIndex",
            "outputs": [
                {
                    "internalType": "uint256",
                    "name": "",
                    "type": "uint256"
                }
            ],
            "stateMutability": "view",
            "type": "function"
        },
        {
            "inputs": [
                {
                    "internalType": "uint256",
                    "name": "tokenId",
                    "type": "uint256"
                }
            ],
            "name": "tokenURI",
            "outputs": [
                {
                    "internalType": "string",
                    "name": "",
                    "type": "string"
                }
            ],
            "stateMutability": "view",
            "type": "function"
        },
        {
            "inputs": [],
            "name": "totalSupply",
            "outputs": [
                {
                    "internalType": "uint256",
                    "name": "",
                    "type": "uint256"
                }
            ],
            "stateMutability": "view",
            "type": "function"
        },
        {
            "inputs": [
                {
                    "internalType": "address",
                    "name": "from",
                    "type": "address"
                },
                {
                    "internalType": "address",
                    "name": "to",
                    "type": "address"
                },
                {
                    "internalType": "uint256",
                    "name": "tokenId",
                    "type": "uint256"
                }
            ],
            "name": "transferFrom",
            "outputs": [],
            "stateMutability": "nonpayable",
            "type": "function"
        },
        {
            "inputs": [
                {
                    "internalType": "address",
                    "name": "newOwner",
                    "type": "address"
                }
            ],
            "name": "transferOwnership",
            "outputs": [],
            "stateMutability": "nonpayable",
            "type": "function"
        },
        {
            "inputs": [],
            "name": "whitelist",
            "outputs": [
                {
                    "internalType": "contract Whitelist",
                    "name": "",
                    "type": "address"
                }
            ],
            "stateMutability": "view",
            "type": "function"
        },
        {
            "inputs": [],
            "name": "withdraw",
            "outputs": [],
            "stateMutability": "nonpayable",
            "type": "function"
        }
    ],
    "bytecode": "0x60806040525f600d5534801562000014575f80fd5b50604051620035a8380380620035a883398181016040528101906200003a91906200035a565b336040518060400160405280600b81526020017f43727970746f20446576730000000000000000000000000000000000000000008152506040518060400160405280600281526020017f4344000000000000000000000000000000000000000000000000000000000000815250815f9081620000b79190620005ee565b508060019081620000c99190620005ee565b5050505f73ffffffffffffffffffffffffffffffffffffffff168173ffffffffffffffffffffffffffffffffffffffff16036200013f575f6040517f1e4fbdf7000000000000000000000000000000000000000000000000000000008152600401620001369190620006e3565b60405180910390fd5b62000150816200023260201b60201c565b5080600b5f6101000a81548173ffffffffffffffffffffffffffffffffffffffff021916908373ffffffffffffffffffffffffffffffffffffffff160217905550600b5f9054906101000a900473ffffffffffffffffffffffffffffffffffffffff1673ffffffffffffffffffffffffffffffffffffffff166331a721886040518163ffffffff1660e01b8152600401602060405180830381865afa158015620001fc573d5f803e3d5ffd5b505050506040513d601f19601f8201168201806040525081019062000222919062000739565b60ff16600c819055505062000769565b5f600a5f9054906101000a900473ffffffffffffffffffffffffffffffffffffffff16905081600a5f6101000a81548173ffffffffffffffffffffffffffffffffffffffff021916908373ffffffffffffffffffffffffffffffffffffffff1602179055508173ffffffffffffffffffffffffffffffffffffffff168173ffffffffffffffffffffffffffffffffffffffff167f8be0079c531659141344cd1fd0a4f28419497f9722a3daafe3b4186f6b6457e060405160405180910390a35050565b5f80fd5b5f73ffffffffffffffffffffffffffffffffffffffff82169050919050565b5f6200032482620002f9565b9050919050565b620003368162000318565b811462000341575f80fd5b50565b5f8151905062000354816200032b565b92915050565b5f60208284031215620003725762000371620002f5565b5b5f620003818482850162000344565b91505092915050565b5f81519050919050565b7f4e487b71000000000000000000000000000000000000000000000000000000005f52604160045260245ffd5b7f4e487b71000000000000000000000000000000000000000000000000000000005f52602260045260245ffd5b5f60028204905060018216806200040657607f821691505b6020821081036200041c576200041b620003c1565b5b50919050565b5f819050815f5260205f209050919050565b5f6020601f8301049050919050565b5f82821b905092915050565b5f60088302620004807fffffffffffffffffffffffffffffffffffffffffffffffffffffffffffffffff8262000443565b6200048c868362000443565b95508019841693508086168417925050509392505050565b5f819050919050565b5f819050919050565b5f620004d6620004d0620004ca84620004a4565b620004ad565b620004a4565b9050919050565b5f819050919050565b620004f183620004b6565b620005096200050082620004dd565b8484546200044f565b825550505050565b5f90565b6200051f62000511565b6200052c818484620004e6565b505050565b5b818110156200055357620005475f8262000515565b60018101905062000532565b5050565b601f821115620005a2576200056c8162000422565b620005778462000434565b8101602085101562000587578190505b6200059f620005968562000434565b83018262000531565b50505b505050565b5f82821c905092915050565b5f620005c45f1984600802620005a7565b1980831691505092915050565b5f620005de8383620005b3565b9150826002028217905092915050565b620005f9826200038a565b67ffffffffffffffff81111562000615576200061462000394565b5b620006218254620003ee565b6200062e82828562000557565b5f60209050601f83116001811462000664575f84156200064f578287015190505b6200065b8582620005d1565b865550620006ca565b601f198416620006748662000422565b5f5b828110156200069d5784890151825560018201915060208501945060208101905062000676565b86831015620006bd5784890151620006b9601f891682620005b3565b8355505b6001600288020188555050505b505050505050565b620006dd8162000318565b82525050565b5f602082019050620006f85f830184620006d2565b92915050565b5f60ff82169050919050565b6200071581620006fe565b811462000720575f80fd5b50565b5f8151905062000733816200070a565b92915050565b5f60208284031215620007515762000750620002f5565b5b5f620007608482850162000723565b91505092915050565b612e3180620007775f395ff3fe608060405260043610610180575f3560e01c80635f769621116100d057806395d89b4111610089578063c87b56dd11610063578063c87b56dd1461053a578063e985e9c514610576578063f2fde38b146105b2578063fdddd2cd146105da57610180565b806395d89b41146104c0578063a22cb465146104ea578063b88d4fde1461051257610180565b80635f769621146103b45780636352211e146103de57806370a082311461041a578063715018a6146104565780638da5cb5b1461046c57806393e59dc11461049657610180565b806318160ddd1161013d5780632f745c59116101175780632f745c59146102fe5780633ccfd60b1461033a57806342842e0e146103505780634f6ccce71461037857610180565b806318160ddd14610282578063235b6ea1146102ac57806323b872dd146102d657610180565b806301ffc9a71461018457806306fdde03146101c0578063081812fc146101ea578063095ea7b3146102265780631249c58b1461024e57806315a5534714610258575b5f80fd5b34801561018f575f80fd5b506101aa60048036038101906101a591906122fa565b610604565b6040516101b7919061233f565b60405180910390f35b3480156101cb575f80fd5b506101d4610615565b6040516101e191906123e2565b60405180910390f35b3480156101f5575f80fd5b50610210600480360381019061020b9190612435565b6106a4565b60405161021d919061249f565b60405180910390f35b348015610231575f80fd5b5061024c600480360381019061024791906124e2565b6106bf565b005b6102566106d5565b005b348015610263575f80fd5b5061026c6108b2565b604051610279919061252f565b60405180910390f35b34801561028d575f80fd5b506102966108b8565b6040516102a3919061252f565b60405180910390f35b3480156102b7575f80fd5b506102c06108c4565b6040516102cd919061252f565b60405180910390f35b3480156102e1575f80fd5b506102fc60048036038101906102f79190612548565b6108cf565b005b348015610309575f80fd5b50610324600480360381019061031f91906124e2565b6109ce565b604051610331919061252f565b60405180910390f35b348015610345575f80fd5b5061034e610a72565b005b34801561035b575f80fd5b5061037660048036038101906103719190612548565b610b31565b005b348015610383575f80fd5b5061039e60048036038101906103999190612435565b610b50565b6040516103ab919061252f565b60405180910390f35b3480156103bf575f80fd5b506103c8610bc2565b6040516103d5919061252f565b60405180910390f35b3480156103e9575f80fd5b5061040460048036038101906103ff9190612435565b610bc7565b604051610411919061249f565b60405180910390f35b348015610425575f80fd5b50610440600480360381019061043b9190612598565b610bd8565b60405161044d919061252f565b60405180910390f35b348015610461575f80fd5b5061046a610c8e565b005b348015610477575f80fd5b50610480610ca1565b60405161048d919061249f565b60405180910390f35b3480156104a1575f80fd5b506104aa610cc9565b6040516104b7919061261e565b60405180910390f35b3480156104cb575f80fd5b506104d4610cee565b6040516104e191906123e2565b60405180910390f35b3480156104f5575f80fd5b50610510600480360381019061050b9190612661565b610d7e565b005b34801561051d575f80fd5b50610538600480360381019061053391906127cb565b610d94565b005b348015610545575f80fd5b50610560600480360381019061055b9190612435565b610db9565b60405161056d91906123e2565b60405180910390f35b348015610581575f80fd5b5061059c6004803603810190610597919061284b565b610e1f565b6040516105a9919061233f565b60405180910390f35b3480156105bd575f80fd5b506105d860048036038101906105d39190612598565b610ead565b005b3480156105e5575f80fd5b506105ee610f31565b6040516105fb919061252f565b60405180910390f35b5f61060e82610f37565b9050919050565b60605f8054610623906128b6565b80601f016020809104026020016040519081016040528092919081815260200182805461064f906128b6565b801561069a5780601f106106715761010080835404028352916020019161069a565b820191905f5260205f20905b81548152906001019060200180831161067d57829003601f168201915b5050505050905090565b5f6106ae82610fb0565b506106b882611036565b9050919050565b6106d182826106cc61106f565b611076565b5050565b6014600d54600c546106e56108b8565b6106ef9190612913565b6106f99190612946565b10610739576040517f08c379a0000000000000000000000000000000000000000000000000000000008152600401610730906129c3565b60405180910390fd5b600b5f9054906101000a900473ffffffffffffffffffffffffffffffffffffffff1673ffffffffffffffffffffffffffffffffffffffff166306c933d8336040518263ffffffff1660e01b8152600401610793919061249f565b602060405180830381865afa1580156107ae573d5f803e3d5ffd5b505050506040513d601f19601f820116820180604052508101906107d291906129f5565b80156107e45750662386f26fc1000034105b1561084f575f6107f333610bd8565b14610833576040517f08c379a000000000000000000000000000000000000000000000000000000000815260040161082a90612a6a565b60405180910390fd5b600d5f81548092919061084590612a88565b919050555061089a565b662386f26fc10000341015610899576040517f08c379a000000000000000000000000000000000000000000000000000000000815260040161089090612b19565b60405180910390fd5b5b5f6108a36108b8565b90506108af3382611088565b50565b600c5481565b5f600880549050905090565b662386f26fc1000081565b5f73ffffffffffffffffffffffffffffffffffffffff168273ffffffffffffffffffffffffffffffffffffffff160361093f575f6040517f64a0ae92000000000000000000000000000000000000000000000000000000008152600401610936919061249f565b60405180910390fd5b5f610952838361094d61106f565b6110a5565b90508373ffffffffffffffffffffffffffffffffffffffff168173ffffffffffffffffffffffffffffffffffffffff16146109c8578382826040517f64283d7b0000000000000000000000000000000000000000000000000000000081526004016109bf93929190612b37565b60405180910390fd5b50505050565b5f6109d883610bd8565b8210610a1d5782826040517fa57d13dc000000000000000000000000000000000000000000000000000000008152600401610a14929190612b6c565b60405180910390fd5b60065f8473ffffffffffffffffffffffffffffffffffffffff1673ffffffffffffffffffffffffffffffffffffffff1681526020019081526020015f205f8381526020019081526020015f2054905092915050565b610a7a6111bf565b5f4790505f610a87610ca1565b73ffffffffffffffffffffffffffffffffffffffff1682604051610aaa90612bc0565b5f6040518083038185875af1925050503d805f8114610ae4576040519150601f19603f3d011682016040523d82523d5f602084013e610ae9565b606091505b5050905080610b2d576040517f08c379a0000000000000000000000000000000000000000000000000000000008152600401610b2490612c1e565b60405180910390fd5b5050565b610b4b83838360405180602001604052805f815250610d94565b505050565b5f610b596108b8565b8210610b9e575f826040517fa57d13dc000000000000000000000000000000000000000000000000000000008152600401610b95929190612b6c565b60405180910390fd5b60088281548110610bb257610bb1612c3c565b5b905f5260205f2001549050919050565b601481565b5f610bd182610fb0565b9050919050565b5f8073ffffffffffffffffffffffffffffffffffffffff168273ffffffffffffffffffffffffffffffffffffffff1603610c49575f6040517f89c62b64000000000000000000000000000000000000000000000000000000008152600401610c40919061249f565b60405180910390fd5b60035f8373ffffffffffffffffffffffffffffffffffffffff1673ffffffffffffffffffffffffffffffffffffffff1681526020019081526020015f20549050919050565b610c966111bf565b610c9f5f611246565b565b5f600a5f9054906101000a900473ffffffffffffffffffffffffffffffffffffffff16905090565b600b5f9054906101000a900473ffffffffffffffffffffffffffffffffffffffff1681565b606060018054610cfd906128b6565b80601f0160208091040260200160405190810160405280929190818152602001828054610d29906128b6565b8015610d745780601f10610d4b57610100808354040283529160200191610d74565b820191905f5260205f20905b815481529060010190602001808311610d5757829003601f168201915b5050505050905090565b610d90610d8961106f565b8383611309565b5050565b610d9f8484846108cf565b610db3610daa61106f565b85858585611472565b50505050565b6060610dc482610fb0565b505f610dce61161e565b90505f815111610dec5760405180602001604052805f815250610e17565b80610df684611634565b604051602001610e07929190612ca3565b6040516020818303038152906040525b915050919050565b5f60055f8473ffffffffffffffffffffffffffffffffffffffff1673ffffffffffffffffffffffffffffffffffffffff1681526020019081526020015f205f8373ffffffffffffffffffffffffffffffffffffffff1673ffffffffffffffffffffffffffffffffffffffff1681526020019081526020015f205f9054906101000a900460ff16905092915050565b610eb56111bf565b5f73ffffffffffffffffffffffffffffffffffffffff168173ffffffffffffffffffffffffffffffffffffffff1603610f25575f6040517f1e4fbdf7000000000000000000000000000000000000000000000000000000008152600401610f1c919061249f565b60405180910390fd5b610f2e81611246565b50565b600d5481565b5f7f780e9d63000000000000000000000000000000000000000000000000000000007bffffffffffffffffffffffffffffffffffffffffffffffffffffffff1916827bffffffffffffffffffffffffffffffffffffffffffffffffffffffff19161480610fa95750610fa8826116fe565b5b9050919050565b5f80610fbb836117df565b90505f73ffffffffffffffffffffffffffffffffffffffff168173ffffffffffffffffffffffffffffffffffffffff160361102d57826040517f7e273289000000000000000000000000000000000000000000000000000000008152600401611024919061252f565b60405180910390fd5b80915050919050565b5f60045f8381526020019081526020015f205f9054906101000a900473ffffffffffffffffffffffffffffffffffffffff169050919050565b5f33905090565b6110838383836001611818565b505050565b6110a1828260405180602001604052805f8152506119d7565b5050565b5f806110b28585856119fa565b90505f73ffffffffffffffffffffffffffffffffffffffff168173ffffffffffffffffffffffffffffffffffffffff16036110f5576110f084611c05565b611134565b8473ffffffffffffffffffffffffffffffffffffffff168173ffffffffffffffffffffffffffffffffffffffff1614611133576111328185611c49565b5b5b5f73ffffffffffffffffffffffffffffffffffffffff168573ffffffffffffffffffffffffffffffffffffffff16036111755761117084611d20565b6111b4565b8473ffffffffffffffffffffffffffffffffffffffff168173ffffffffffffffffffffffffffffffffffffffff16146111b3576111b28585611de0565b5b5b809150509392505050565b6111c761106f565b73ffffffffffffffffffffffffffffffffffffffff166111e5610ca1565b73ffffffffffffffffffffffffffffffffffffffff16146112445761120861106f565b6040517f118cdaa700000000000000000000000000000000000000000000000000000000815260040161123b919061249f565b60405180910390fd5b565b5f600a5f9054906101000a900473ffffffffffffffffffffffffffffffffffffffff16905081600a5f6101000a81548173ffffffffffffffffffffffffffffffffffffffff021916908373ffffffffffffffffffffffffffffffffffffffff1602179055508173ffffffffffffffffffffffffffffffffffffffff168173ffffffffffffffffffffffffffffffffffffffff167f8be0079c531659141344cd1fd0a4f28419497f9722a3daafe3b4186f6b6457e060405160405180910390a35050565b5f73ffffffffffffffffffffffffffffffffffffffff168273ffffffffffffffffffffffffffffffffffffffff160361137957816040517f5b08ba18000000000000000000000000000000000000000000000000000000008152600401611370919061249f565b60405180910390fd5b8060055f8573ffffffffffffffffffffffffffffffffffffffff1673ffffffffffffffffffffffffffffffffffffffff1681526020019081526020015f205f8473ffffffffffffffffffffffffffffffffffffffff1673ffffffffffffffffffffffffffffffffffffffff1681526020019081526020015f205f6101000a81548160ff0219169083151502179055508173ffffffffffffffffffffffffffffffffffffffff168373ffffffffffffffffffffffffffffffffffffffff167f17307eab39ab6107e8899845ad3d59bd9653f200f220920489ca2b5937696c3183604051611465919061233f565b60405180910390a3505050565b5f8373ffffffffffffffffffffffffffffffffffffffff163b1115611617578273ffffffffffffffffffffffffffffffffffffffff1663150b7a02868685856040518563ffffffff1660e01b81526004016114d09493929190612d18565b6020604051808303815f875af192505050801561150b57506040513d601f19601f820116820180604052508101906115089190612d76565b60015b61158c573d805f8114611539576040519150601f19603f3d011682016040523d82523d5f602084013e61153e565b606091505b505f81510361158457836040517f64a0ae9200000000000000000000000000000000000000000000000000000000815260040161157b919061249f565b60405180910390fd5b805160208201fd5b63150b7a0260e01b7bffffffffffffffffffffffffffffffffffffffffffffffffffffffff1916817bffffffffffffffffffffffffffffffffffffffffffffffffffffffff19161461161557836040517f64a0ae9200000000000000000000000000000000000000000000000000000000815260040161160c919061249f565b60405180910390fd5b505b5050505050565b606060405180602001604052805f815250905090565b60605f600161164284611e64565b0190505f8167ffffffffffffffff8111156116605761165f6126a7565b5b6040519080825280601f01601f1916602001820160405280156116925781602001600182028036833780820191505090505b5090505f82602083010190505b6001156116f3578080600190039150507f3031323334353637383961626364656600000000000000000000000000000000600a86061a8153600a85816116e8576116e7612da1565b5b0494505f850361169f575b819350505050919050565b5f7f80ac58cd000000000000000000000000000000000000000000000000000000007bffffffffffffffffffffffffffffffffffffffffffffffffffffffff1916827bffffffffffffffffffffffffffffffffffffffffffffffffffffffff191614806117c857507f5b5e139f000000000000000000000000000000000000000000000000000000007bffffffffffffffffffffffffffffffffffffffffffffffffffffffff1916827bffffffffffffffffffffffffffffffffffffffffffffffffffffffff1916145b806117d857506117d782611fb5565b5b9050919050565b5f60025f8381526020019081526020015f205f9054906101000a900473ffffffffffffffffffffffffffffffffffffffff169050919050565b808061185057505f73ffffffffffffffffffffffffffffffffffffffff168273ffffffffffffffffffffffffffffffffffffffff1614155b15611982575f61185f84610fb0565b90505f73ffffffffffffffffffffffffffffffffffffffff168373ffffffffffffffffffffffffffffffffffffffff16141580156118c957508273ffffffffffffffffffffffffffffffffffffffff168173ffffffffffffffffffffffffffffffffffffffff1614155b80156118dc57506118da8184610e1f565b155b1561191e57826040517fa9fbf51f000000000000000000000000000000000000000000000000000000008152600401611915919061249f565b60405180910390fd5b811561198057838573ffffffffffffffffffffffffffffffffffffffff168273ffffffffffffffffffffffffffffffffffffffff167f8c5be1e5ebec7d5bd14f71427d1e84f3dd0314c0f7b2291e5b200ac8c7c3b92560405160405180910390a45b505b8360045f8581526020019081526020015f205f6101000a81548173ffffffffffffffffffffffffffffffffffffffff021916908373ffffffffffffffffffffffffffffffffffffffff16021790555050505050565b6119e1838361201e565b6119f56119ec61106f565b5f858585611472565b505050565b5f80611a05846117df565b90505f73ffffffffffffffffffffffffffffffffffffffff168373ffffffffffffffffffffffffffffffffffffffff1614611a4657611a45818486612111565b5b5f73ffffffffffffffffffffffffffffffffffffffff168173ffffffffffffffffffffffffffffffffffffffff1614611ad157611a855f855f80611818565b600160035f8373ffffffffffffffffffffffffffffffffffffffff1673ffffffffffffffffffffffffffffffffffffffff1681526020019081526020015f205f82825403925050819055505b5f73ffffffffffffffffffffffffffffffffffffffff168573ffffffffffffffffffffffffffffffffffffffff1614611b5057600160035f8773ffffffffffffffffffffffffffffffffffffffff1673ffffffffffffffffffffffffffffffffffffffff1681526020019081526020015f205f82825401925050819055505b8460025f8681526020019081526020015f205f6101000a81548173ffffffffffffffffffffffffffffffffffffffff021916908373ffffffffffffffffffffffffffffffffffffffff160217905550838573ffffffffffffffffffffffffffffffffffffffff168273ffffffffffffffffffffffffffffffffffffffff167fddf252ad1be2c89b69c2b068fc378daa952ba7f163c4a11628f55a4df523b3ef60405160405180910390a4809150509392505050565b60088054905060095f8381526020019081526020015f2081905550600881908060018154018082558091505060019003905f5260205f20015f909190919091505550565b5f611c5383610bd8565b90505f60075f8481526020019081526020015f205490505f60065f8673ffffffffffffffffffffffffffffffffffffffff1673ffffffffffffffffffffffffffffffffffffffff1681526020019081526020015f209050828214611cf2575f815f8581526020019081526020015f2054905080825f8581526020019081526020015f20819055508260075f8381526020019081526020015f2081905550505b60075f8581526020019081526020015f205f9055805f8481526020019081526020015f205f90555050505050565b5f6001600880549050611d339190612946565b90505f60095f8481526020019081526020015f205490505f60088381548110611d5f57611d5e612c3c565b5b905f5260205f20015490508060088381548110611d7f57611d7e612c3c565b5b905f5260205f2001819055508160095f8381526020019081526020015f208190555060095f8581526020019081526020015f205f90556008805480611dc757611dc6612dce565b5b600190038181905f5260205f20015f9055905550505050565b5f6001611dec84610bd8565b611df69190612946565b90508160065f8573ffffffffffffffffffffffffffffffffffffffff1673ffffffffffffffffffffffffffffffffffffffff1681526020019081526020015f205f8381526020019081526020015f20819055508060075f8481526020019081526020015f2081905550505050565b5f805f90507a184f03e93ff9f4daa797ed6e38ed64bf6a1f0100000000000000008310611ec0577a184f03e93ff9f4daa797ed6e38ed64bf6a1f0100000000000000008381611eb657611eb5612da1565b5b0492506040810190505b6d04ee2d6d415b85acef81000000008310611efd576d04ee2d6d415b85acef81000000008381611ef357611ef2612da1565b5b0492506020810190505b662386f26fc100008310611f2c57662386f26fc100008381611f2257611f21612da1565b5b0492506010810190505b6305f5e1008310611f55576305f5e1008381611f4b57611f4a612da1565b5b0492506008810190505b6127108310611f7a576127108381611f7057611f6f612da1565b5b0492506004810190505b60648310611f9d5760648381611f9357611f92612da1565b5b0492506002810190505b600a8310611fac576001810190505b80915050919050565b5f7f01ffc9a7000000000000000000000000000000000000000000000000000000007bffffffffffffffffffffffffffffffffffffffffffffffffffffffff1916827bffffffffffffffffffffffffffffffffffffffffffffffffffffffff1916149050919050565b5f73ffffffffffffffffffffffffffffffffffffffff168273ffffffffffffffffffffffffffffffffffffffff160361208e575f6040517f64a0ae92000000000000000000000000000000000000000000000000000000008152600401612085919061249f565b60405180910390fd5b5f61209a83835f6110a5565b90505f73ffffffffffffffffffffffffffffffffffffffff168173ffffffffffffffffffffffffffffffffffffffff161461210c575f6040517f73c6ac6e000000000000000000000000000000000000000000000000000000008152600401612103919061249f565b60405180910390fd5b505050565b61211c8383836121d4565b6121cf575f73ffffffffffffffffffffffffffffffffffffffff168373ffffffffffffffffffffffffffffffffffffffff160361219057806040517f7e273289000000000000000000000000000000000000000000000000000000008152600401612187919061252f565b60405180910390fd5b81816040517f177e802f0000000000000000000000000000000000000000000000000000000081526004016121c6929190612b6c565b60405180910390fd5b505050565b5f8073ffffffffffffffffffffffffffffffffffffffff168373ffffffffffffffffffffffffffffffffffffffff161415801561228b57508273ffffffffffffffffffffffffffffffffffffffff168473ffffffffffffffffffffffffffffffffffffffff16148061224c575061224b8484610e1f565b5b8061228a57508273ffffffffffffffffffffffffffffffffffffffff1661227283611036565b73ffffffffffffffffffffffffffffffffffffffff16145b5b90509392505050565b5f604051905090565b5f80fd5b5f80fd5b5f7fffffffff0000000000000000000000000000000000000000000000000000000082169050919050565b6122d9816122a5565b81146122e3575f80fd5b50565b5f813590506122f4816122d0565b92915050565b5f6020828403121561230f5761230e61229d565b5b5f61231c848285016122e6565b91505092915050565b5f8115159050919050565b61233981612325565b82525050565b5f6020820190506123525f830184612330565b92915050565b5f81519050919050565b5f82825260208201905092915050565b5f5b8381101561238f578082015181840152602081019050612374565b5f8484015250505050565b5f601f19601f8301169050919050565b5f6123b482612358565b6123be8185612362565b93506123ce818560208601612372565b6123d78161239a565b840191505092915050565b5f6020820190508181035f8301526123fa81846123aa565b905092915050565b5f819050919050565b61241481612402565b811461241e575f80fd5b50565b5f8135905061242f8161240b565b92915050565b5f6020828403121561244a5761244961229d565b5b5f61245784828501612421565b91505092915050565b5f73ffffffffffffffffffffffffffffffffffffffff82169050919050565b5f61248982612460565b9050919050565b6124998161247f565b82525050565b5f6020820190506124b25f830184612490565b92915050565b6124c18161247f565b81146124cb575f80fd5b50565b5f813590506124dc816124b8565b92915050565b5f80604083850312156124f8576124f761229d565b5b5f612505858286016124ce565b925050602061251685828601612421565b9150509250929050565b61252981612402565b82525050565b5f6020820190506125425f830184612520565b92915050565b5f805f6060848603121561255f5761255e61229d565b5b5f61256c868287016124ce565b935050602061257d868287016124ce565b925050604061258e86828701612421565b9150509250925092565b5f602082840312156125ad576125ac61229d565b5b5f6125ba848285016124ce565b91505092915050565b5f819050919050565b5f6125e66125e16125dc84612460565b6125c3565b612460565b9050919050565b5f6125f7826125cc565b9050919050565b5f612608826125ed565b9050919050565b612618816125fe565b82525050565b5f6020820190506126315f83018461260f565b92915050565b61264081612325565b811461264a575f80fd5b50565b5f8135905061265b81612637565b92915050565b5f80604083850312156126775761267661229d565b5b5f612684858286016124ce565b92505060206126958582860161264d565b9150509250929050565b5f80fd5b5f80fd5b7f4e487b71000000000000000000000000000000000000000000000000000000005f52604160045260245ffd5b6126dd8261239a565b810181811067ffffffffffffffff821117156126fc576126fb6126a7565b5b80604052505050565b5f61270e612294565b905061271a82826126d4565b919050565b5f67ffffffffffffffff821115612739576127386126a7565b5b6127428261239a565b9050602081019050919050565b828183375f83830152505050565b5f61276f61276a8461271f565b612705565b90508281526020810184848401111561278b5761278a6126a3565b5b61279684828561274f565b509392505050565b5f82601f8301126127b2576127b161269f565b5b81356127c284826020860161275d565b91505092915050565b5f805f80608085870312156127e3576127e261229d565b5b5f6127f0878288016124ce565b9450506020612801878288016124ce565b935050604061281287828801612421565b925050606085013567ffffffffffffffff811115612833576128326122a1565b5b61283f8782880161279e565b91505092959194509250565b5f80604083850312156128615761286061229d565b5b5f61286e858286016124ce565b925050602061287f858286016124ce565b9150509250929050565b7f4e487b71000000000000000000000000000000000000000000000000000000005f52602260045260245ffd5b5f60028204905060018216806128cd57607f821691505b6020821081036128e0576128df612889565b5b50919050565b7f4e487b71000000000000000000000000000000000000000000000000000000005f52601160045260245ffd5b5f61291d82612402565b915061292883612402565b92508282019050808211156129405761293f6128e6565b5b92915050565b5f61295082612402565b915061295b83612402565b9250828203905081811115612973576129726128e6565b5b92915050565b7f45584345454445445f4d41585f535550504c59000000000000000000000000005f82015250565b5f6129ad601383612362565b91506129b882612979565b602082019050919050565b5f6020820190508181035f8301526129da816129a1565b9050919050565b5f815190506129ef81612637565b92915050565b5f60208284031215612a0a57612a0961229d565b5b5f612a17848285016129e1565b91505092915050565b7f414c52454144595f4f574e4544000000000000000000000000000000000000005f82015250565b5f612a54600d83612362565b9150612a5f82612a20565b602082019050919050565b5f6020820190508181035f830152612a8181612a48565b9050919050565b5f612a9282612402565b91507fffffffffffffffffffffffffffffffffffffffffffffffffffffffffffffffff8203612ac457612ac36128e6565b5b600182019050919050565b7f4e4f545f454e4f5547485f4554484552000000000000000000000000000000005f82015250565b5f612b03601083612362565b9150612b0e82612acf565b602082019050919050565b5f6020820190508181035f830152612b3081612af7565b9050919050565b5f606082019050612b4a5f830186612490565b612b576020830185612520565b612b646040830184612490565b949350505050565b5f604082019050612b7f5f830185612490565b612b8c6020830184612520565b9392505050565b5f81905092915050565b50565b5f612bab5f83612b93565b9150612bb682612b9d565b5f82019050919050565b5f612bca82612ba0565b9150819050919050565b7f4661696c656420746f2073656e642045746865720000000000000000000000005f82015250565b5f612c08601483612362565b9150612c1382612bd4565b602082019050919050565b5f6020820190508181035f830152612c3581612bfc565b9050919050565b7f4e487b71000000000000000000000000000000000000000000000000000000005f52603260045260245ffd5b5f81905092915050565b5f612c7d82612358565b612c878185612c69565b9350612c97818560208601612372565b80840191505092915050565b5f612cae8285612c73565b9150612cba8284612c73565b91508190509392505050565b5f81519050919050565b5f82825260208201905092915050565b5f612cea82612cc6565b612cf48185612cd0565b9350612d04818560208601612372565b612d0d8161239a565b840191505092915050565b5f608082019050612d2b5f830187612490565b612d386020830186612490565b612d456040830185612520565b8181036060830152612d578184612ce0565b905095945050505050565b5f81519050612d70816122d0565b92915050565b5f60208284031215612d8b57612d8a61229d565b5b5f612d9884828501612d62565b91505092915050565b7f4e487b71000000000000000000000000000000000000000000000000000000005f52601260045260245ffd5b7f4e487b71000000000000000000000000000000000000000000000000000000005f52603160045260245ffdfea264697066735822122062c917f543def3f18095ac73efa01a9365a9585d723ca2a055ac834b7ab221ab64736f6c63430008140033",
    "linkReferences": {},
    "deployedLinkReferences": {}
}