{
    "_format": "hh-sol-artifact-1",
    "contractName": "Whitelist",
    "sourceName": "contracts/Whitelist.sol",
    "abi": [
        {
            "inputs": [
                {
                    "internalType": "uint8",
                    "name": "_maxWhitelistedAddresses",
                    "type": "uint8"
                }
            ],
            "stateMutability": "nonpayable",
            "type": "constructor"
        },
        {
            "inputs": [],
            "name": "addAddressToWhitelist",
            "outputs": [],
            "stateMutability": "nonpayable",
            "type": "function"
        },
        {
            "inputs": [],
            "name": "maxWhitelistedAddresses",
            "outputs": [
                {
                    "internalType": "uint8",
                    "name": "",
                    "type": "uint8"
                }
            ],
            "stateMutability": "view",
            "type": "function"
        },
        {
            "inputs": [],
            "name": "numAddressesWhitelisted",
            "outputs": [
                {
                    "internalType": "uint8",
                    "name": "",
                    "type": "uint8"
                }
            ],
            "stateMutability": "view",
            "type": "function"
        },
        {
            "inputs": [
                {
                    "internalType": "address",
                    "name": "",
                    "type": "address"
                }
            ],
            "name": "whitelistedAddresses",
            "outputs": [
                {
                    "internalType": "bool",
                    "name": "",
                    "type": "bool"
                }
            ],
            "stateMutability": "view",
            "type": "function"
        }
    ],
    "bytecode": "0x608060405234801561000f575f80fd5b506040516105f03803806105f08339818101604052810190610031919061008a565b805f806101000a81548160ff021916908360ff160217905550506100b5565b5f80fd5b5f60ff82169050919050565b61006981610054565b8114610073575f80fd5b50565b5f8151905061008481610060565b92915050565b5f6020828403121561009f5761009e610050565b5b5f6100ac84828501610076565b91505092915050565b61052e806100c25f395ff3fe608060405234801561000f575f80fd5b506004361061004a575f3560e01c806306c933d81461004e57806331a721881461007e5780634011d7cd1461009c5780638e7314d9146100ba575b5f80fd5b610068600480360381019061006391906102d9565b6100c4565b604051610075919061031e565b60405180910390f35b6100866100e1565b6040516100939190610352565b60405180910390f35b6100a46100f1565b6040516100b19190610352565b60405180910390f35b6100c2610103565b005b6001602052805f5260405f205f915054906101000a900460ff1681565b5f8054906101000a900460ff1681565b60025f9054906101000a900460ff1681565b60015f3373ffffffffffffffffffffffffffffffffffffffff1673ffffffffffffffffffffffffffffffffffffffff1681526020019081526020015f205f9054906101000a900460ff161561018d576040517f08c379a0000000000000000000000000000000000000000000000000000000008152600401610184906103eb565b60405180910390fd5b5f8054906101000a900460ff1660ff1660025f9054906101000a900460ff1660ff16106101ef576040517f08c379a00000000000000000000000000000000000000000000000000000000081526004016101e690610479565b60405180910390fd5b6001805f3373ffffffffffffffffffffffffffffffffffffffff1673ffffffffffffffffffffffffffffffffffffffff1681526020019081526020015f205f6101000a81548160ff021916908315150217905550600160025f8282829054906101000a900460ff1661026191906104c4565b92506101000a81548160ff021916908360ff160217905550565b5f80fd5b5f73ffffffffffffffffffffffffffffffffffffffff82169050919050565b5f6102a88261027f565b9050919050565b6102b88161029e565b81146102c2575f80fd5b50565b5f813590506102d3816102af565b92915050565b5f602082840312156102ee576102ed61027b565b5b5f6102fb848285016102c5565b91505092915050565b5f8115159050919050565b61031881610304565b82525050565b5f6020820190506103315f83018461030f565b92915050565b5f60ff82169050919050565b61034c81610337565b82525050565b5f6020820190506103655f830184610343565b92915050565b5f82825260208201905092915050565b7f53656e6465722068617320616c7265616479206265656e2077686974656c69735f8201527f7465640000000000000000000000000000000000000000000000000000000000602082015250565b5f6103d560238361036b565b91506103e08261037b565b604082019050919050565b5f6020820190508181035f830152610402816103c9565b9050919050565b7f4d6f7265206164647265737365732063616e742062652061646465642c206c695f8201527f6d69742072656163686564000000000000000000000000000000000000000000602082015250565b5f610463602b8361036b565b915061046e82610409565b604082019050919050565b5f6020820190508181035f83015261049081610457565b9050919050565b7f4e487b71000000000000000000000000000000000000000000000000000000005f52601160045260245ffd5b5f6104ce82610337565b91506104d983610337565b9250828201905060ff8111156104f2576104f1610497565b5b9291505056fea2646970667358221220b30727b7b5b8b9a66704a0b411a49d8c9b6e8d1d4b68fccae86e33bcc12819c464736f6c63430008140033",
    "linkReferences": {},
    "deployedLinkReferences": {}
}